{
	"contracts/SimpleStorage.sol": {
		"SimpleStorage": {
			"abi": [
				{
					"inputs": [
						{
							"internalType": "string",
							"name": "_name",
							"type": "string"
						},
						{
							"internalType": "uint256",
							"name": "_favoriteNumber",
							"type": "uint256"
						}
					],
					"name": "addPerson",
					"outputs": [],
					"stateMutability": "nonpayable",
					"type": "function"
				},
				{
					"inputs": [],
					"name": "favoriteNumber",
					"outputs": [
						{
							"internalType": "uint256",
							"name": "",
							"type": "uint256"
						}
					],
					"stateMutability": "view",
					"type": "function"
				},
				{
					"inputs": [
						{
							"internalType": "uint256",
							"name": "",
							"type": "uint256"
						}
					],
					"name": "people",
					"outputs": [
						{
							"internalType": "uint256",
							"name": "favoriteNumber",
							"type": "uint256"
						},
						{
							"internalType": "string",
							"name": "name",
							"type": "string"
						}
					],
					"stateMutability": "view",
					"type": "function"
				},
				{
					"inputs": [],
					"name": "retrieve",
					"outputs": [
						{
							"internalType": "uint256",
							"name": "",
							"type": "uint256"
						}
					],
					"stateMutability": "view",
					"type": "function"
				},
				{
					"inputs": [
						{
							"internalType": "uint256",
							"name": "_favoriteNumber",
							"type": "uint256"
						}
					],
					"name": "store",
					"outputs": [],
					"stateMutability": "nonpayable",
					"type": "function"
				}
			],
			"devdoc": {
				"kind": "dev",
				"methods": {},
				"version": 1
			},
			"evm": {
				"assembly": "    /* \"contracts/SimpleStorage.sol\":71:594  contract SimpleStorage {... */\n  mstore(0x40, 0x80)\n  callvalue\n  dup1\n  iszero\n  tag_1\n  jumpi\n  0x00\n  dup1\n  revert\ntag_1:\n  pop\n  dataSize(sub_0)\n  dup1\n  dataOffset(sub_0)\n  0x00\n  codecopy\n  0x00\n  return\nstop\n\nsub_0: assembly {\n        /* \"contracts/SimpleStorage.sol\":71:594  contract SimpleStorage {... */\n      mstore(0x40, 0x80)\n      callvalue\n      dup1\n      iszero\n      tag_1\n      jumpi\n      0x00\n      dup1\n      revert\n    tag_1:\n      pop\n      jumpi(tag_2, lt(calldatasize, 0x04))\n      shr(0xe0, calldataload(0x00))\n      dup1\n      0x2e64cec1\n      eq\n      tag_3\n      jumpi\n      dup1\n      0x471f7cdf\n      eq\n      tag_4\n      jumpi\n      dup1\n      0x6057361d\n      eq\n      tag_5\n      jumpi\n      dup1\n      0x6f760f41\n      eq\n      tag_6\n      jumpi\n      dup1\n      0x9e7a13ad\n      eq\n      tag_7\n      jumpi\n    tag_2:\n      0x00\n      dup1\n      revert\n        /* \"contracts/SimpleStorage.sol\":358:447  function retrieve() public view returns (uint256){... */\n    tag_3:\n      tag_8\n      tag_9\n      jump\t// in\n    tag_8:\n      mload(0x40)\n      tag_10\n      swap2\n      swap1\n      tag_11\n      jump\t// in\n    tag_10:\n      mload(0x40)\n      dup1\n      swap2\n      sub\n      swap1\n      return\n        /* \"contracts/SimpleStorage.sol\":103:132  uint256 public favoriteNumber */\n    tag_4:\n      tag_12\n      tag_13\n      jump\t// in\n    tag_12:\n      mload(0x40)\n      tag_14\n      swap2\n      swap1\n      tag_11\n      jump\t// in\n    tag_14:\n      mload(0x40)\n      dup1\n      swap2\n      sub\n      swap1\n      return\n        /* \"contracts/SimpleStorage.sol\":254:350  function store(uint256 _favoriteNumber) public {... */\n    tag_5:\n      tag_15\n      0x04\n      dup1\n      calldatasize\n      sub\n      dup2\n      add\n      swap1\n      tag_16\n      swap2\n      swap1\n      tag_17\n      jump\t// in\n    tag_16:\n      tag_18\n      jump\t// in\n    tag_15:\n      stop\n        /* \"contracts/SimpleStorage.sol\":455:589  function addPerson(string memory _name, uint256 _favoriteNumber) public {... */\n    tag_6:\n      tag_19\n      0x04\n      dup1\n      calldatasize\n      sub\n      dup2\n      add\n      swap1\n      tag_20\n      swap2\n      swap1\n      tag_21\n      jump\t// in\n    tag_20:\n      tag_22\n      jump\t// in\n    tag_19:\n      stop\n        /* \"contracts/SimpleStorage.sol\":139:161  People[] public people */\n    tag_7:\n      tag_23\n      0x04\n      dup1\n      calldatasize\n      sub\n      dup2\n      add\n      swap1\n      tag_24\n      swap2\n      swap1\n      tag_17\n      jump\t// in\n    tag_24:\n      tag_25\n      jump\t// in\n    tag_23:\n      mload(0x40)\n      tag_26\n      swap3\n      swap2\n      swap1\n      tag_27\n      jump\t// in\n    tag_26:\n      mload(0x40)\n      dup1\n      swap2\n      sub\n      swap1\n      return\n        /* \"contracts/SimpleStorage.sol\":358:447  function retrieve() public view returns (uint256){... */\n    tag_9:\n        /* \"contracts/SimpleStorage.sol\":399:406  uint256 */\n      0x00\n        /* \"contracts/SimpleStorage.sol\":425:439  favoriteNumber */\n      dup1\n      sload\n        /* \"contracts/SimpleStorage.sol\":418:439  return favoriteNumber */\n      swap1\n      pop\n        /* \"contracts/SimpleStorage.sol\":358:447  function retrieve() public view returns (uint256){... */\n      swap1\n      jump\t// out\n        /* \"contracts/SimpleStorage.sol\":103:132  uint256 public favoriteNumber */\n    tag_13:\n      sload(0x00)\n      dup2\n      jump\t// out\n        /* \"contracts/SimpleStorage.sol\":254:350  function store(uint256 _favoriteNumber) public {... */\n    tag_18:\n        /* \"contracts/SimpleStorage.sol\":327:342  _favoriteNumber */\n      dup1\n        /* \"contracts/SimpleStorage.sol\":312:326  favoriteNumber */\n      0x00\n        /* \"contracts/SimpleStorage.sol\":312:342  favoriteNumber=_favoriteNumber */\n      dup2\n      swap1\n      sstore\n      pop\n        /* \"contracts/SimpleStorage.sol\":254:350  function store(uint256 _favoriteNumber) public {... */\n      pop\n      jump\t// out\n        /* \"contracts/SimpleStorage.sol\":455:589  function addPerson(string memory _name, uint256 _favoriteNumber) public {... */\n    tag_22:\n        /* \"contracts/SimpleStorage.sol\":538:544  people */\n      0x01\n        /* \"contracts/SimpleStorage.sol\":550:580  People(_favoriteNumber, _name) */\n      mload(0x40)\n      dup1\n      0x40\n      add\n      0x40\n      mstore\n      dup1\n        /* \"contracts/SimpleStorage.sol\":557:572  _favoriteNumber */\n      dup4\n        /* \"contracts/SimpleStorage.sol\":550:580  People(_favoriteNumber, _name) */\n      dup2\n      mstore\n      0x20\n      add\n        /* \"contracts/SimpleStorage.sol\":574:579  _name */\n      dup5\n        /* \"contracts/SimpleStorage.sol\":550:580  People(_favoriteNumber, _name) */\n      dup2\n      mstore\n      pop\n        /* \"contracts/SimpleStorage.sol\":538:581  people.push(People(_favoriteNumber, _name)) */\n      swap1\n      dup1\n      0x01\n      dup2\n      sload\n      add\n      dup1\n      dup3\n      sstore\n      dup1\n      swap2\n      pop\n      pop\n      0x01\n      swap1\n      sub\n      swap1\n      0x00\n      mstore\n      keccak256(0x00, 0x20)\n      swap1\n      0x02\n      mul\n      add\n      0x00\n      swap1\n      swap2\n      swap1\n      swap2\n      swap1\n      swap2\n      pop\n      0x00\n      dup3\n      add\n      mload\n      dup2\n      0x00\n      add\n      sstore\n      0x20\n      dup3\n      add\n      mload\n      dup2\n      0x01\n      add\n      swap1\n      dup2\n      tag_32\n      swap2\n      swap1\n      tag_33\n      jump\t// in\n    tag_32:\n      pop\n      pop\n      pop\n        /* \"contracts/SimpleStorage.sol\":455:589  function addPerson(string memory _name, uint256 _favoriteNumber) public {... */\n      pop\n      pop\n      jump\t// out\n        /* \"contracts/SimpleStorage.sol\":139:161  People[] public people */\n    tag_25:\n      0x01\n      dup2\n      dup2\n      sload\n      dup2\n      lt\n      tag_34\n      jumpi\n      0x00\n      dup1\n      revert\n    tag_34:\n      swap1\n      0x00\n      mstore\n      keccak256(0x00, 0x20)\n      swap1\n      0x02\n      mul\n      add\n      0x00\n      swap2\n      pop\n      swap1\n      pop\n      dup1\n      0x00\n      add\n      sload\n      swap1\n      dup1\n      0x01\n      add\n      dup1\n      sload\n      tag_36\n      swap1\n      tag_37\n      jump\t// in\n    tag_36:\n      dup1\n      0x1f\n      add\n      0x20\n      dup1\n      swap2\n      div\n      mul\n      0x20\n      add\n      mload(0x40)\n      swap1\n      dup2\n      add\n      0x40\n      mstore\n      dup1\n      swap3\n      swap2\n      swap1\n      dup2\n      dup2\n      mstore\n      0x20\n      add\n      dup3\n      dup1\n      sload\n      tag_38\n      swap1\n      tag_37\n      jump\t// in\n    tag_38:\n      dup1\n      iszero\n      tag_39\n      jumpi\n      dup1\n      0x1f\n      lt\n      tag_40\n      jumpi\n      0x0100\n      dup1\n      dup4\n      sload\n      div\n      mul\n      dup4\n      mstore\n      swap2\n      0x20\n      add\n      swap2\n      jump(tag_39)\n    tag_40:\n      dup3\n      add\n      swap2\n      swap1\n      0x00\n      mstore\n      keccak256(0x00, 0x20)\n      swap1\n    tag_41:\n      dup2\n      sload\n      dup2\n      mstore\n      swap1\n      0x01\n      add\n      swap1\n      0x20\n      add\n      dup1\n      dup4\n      gt\n      tag_41\n      jumpi\n      dup3\n      swap1\n      sub\n      0x1f\n      and\n      dup3\n      add\n      swap2\n    tag_39:\n      pop\n      pop\n      pop\n      pop\n      pop\n      swap1\n      pop\n      dup3\n      jump\t// out\n        /* \"#utility.yul\":7:84   */\n    tag_42:\n        /* \"#utility.yul\":44:51   */\n      0x00\n        /* \"#utility.yul\":73:78   */\n      dup2\n        /* \"#utility.yul\":62:78   */\n      swap1\n      pop\n        /* \"#utility.yul\":7:84   */\n      swap2\n      swap1\n      pop\n      jump\t// out\n        /* \"#utility.yul\":90:208   */\n    tag_43:\n        /* \"#utility.yul\":177:201   */\n      tag_82\n        /* \"#utility.yul\":195:200   */\n      dup2\n        /* \"#utility.yul\":177:201   */\n      tag_42\n      jump\t// in\n    tag_82:\n        /* \"#utility.yul\":172:175   */\n      dup3\n        /* \"#utility.yul\":165:202   */\n      mstore\n        /* \"#utility.yul\":90:208   */\n      pop\n      pop\n      jump\t// out\n        /* \"#utility.yul\":214:436   */\n    tag_11:\n        /* \"#utility.yul\":307:311   */\n      0x00\n        /* \"#utility.yul\":345:347   */\n      0x20\n        /* \"#utility.yul\":334:343   */\n      dup3\n        /* \"#utility.yul\":330:348   */\n      add\n        /* \"#utility.yul\":322:348   */\n      swap1\n      pop\n        /* \"#utility.yul\":358:429   */\n      tag_84\n        /* \"#utility.yul\":426:427   */\n      0x00\n        /* \"#utility.yul\":415:424   */\n      dup4\n        /* \"#utility.yul\":411:428   */\n      add\n        /* \"#utility.yul\":402:408   */\n      dup5\n        /* \"#utility.yul\":358:429   */\n      tag_43\n      jump\t// in\n    tag_84:\n        /* \"#utility.yul\":214:436   */\n      swap3\n      swap2\n      pop\n      pop\n      jump\t// out\n        /* \"#utility.yul\":442:517   */\n    tag_44:\n        /* \"#utility.yul\":475:481   */\n      0x00\n        /* \"#utility.yul\":508:510   */\n      0x40\n        /* \"#utility.yul\":502:511   */\n      mload\n        /* \"#utility.yul\":492:511   */\n      swap1\n      pop\n        /* \"#utility.yul\":442:517   */\n      swap1\n      jump\t// out\n        /* \"#utility.yul\":523:640   */\n    tag_45:\n        /* \"#utility.yul\":632:633   */\n      0x00\n        /* \"#utility.yul\":629:630   */\n      dup1\n        /* \"#utility.yul\":622:634   */\n      revert\n        /* \"#utility.yul\":646:763   */\n    tag_46:\n        /* \"#utility.yul\":755:756   */\n      0x00\n        /* \"#utility.yul\":752:753   */\n      dup1\n        /* \"#utility.yul\":745:757   */\n      revert\n        /* \"#utility.yul\":769:891   */\n    tag_47:\n        /* \"#utility.yul\":842:866   */\n      tag_89\n        /* \"#utility.yul\":860:865   */\n      dup2\n        /* \"#utility.yul\":842:866   */\n      tag_42\n      jump\t// in\n    tag_89:\n        /* \"#utility.yul\":835:840   */\n      dup2\n        /* \"#utility.yul\":832:867   */\n      eq\n        /* \"#utility.yul\":822:885   */\n      tag_90\n      jumpi\n        /* \"#utility.yul\":881:882   */\n      0x00\n        /* \"#utility.yul\":878:879   */\n      dup1\n        /* \"#utility.yul\":871:883   */\n      revert\n        /* \"#utility.yul\":822:885   */\n    tag_90:\n        /* \"#utility.yul\":769:891   */\n      pop\n      jump\t// out\n        /* \"#utility.yul\":897:1036   */\n    tag_48:\n        /* \"#utility.yul\":943:948   */\n      0x00\n        /* \"#utility.yul\":981:987   */\n      dup2\n        /* \"#utility.yul\":968:988   */\n      calldataload\n        /* \"#utility.yul\":959:988   */\n      swap1\n      pop\n        /* \"#utility.yul\":997:1030   */\n      tag_92\n        /* \"#utility.yul\":1024:1029   */\n      dup2\n        /* \"#utility.yul\":997:1030   */\n      tag_47\n      jump\t// in\n    tag_92:\n        /* \"#utility.yul\":897:1036   */\n      swap3\n      swap2\n      pop\n      pop\n      jump\t// out\n        /* \"#utility.yul\":1042:1371   */\n    tag_17:\n        /* \"#utility.yul\":1101:1107   */\n      0x00\n        /* \"#utility.yul\":1150:1152   */\n      0x20\n        /* \"#utility.yul\":1138:1147   */\n      dup3\n        /* \"#utility.yul\":1129:1136   */\n      dup5\n        /* \"#utility.yul\":1125:1148   */\n      sub\n        /* \"#utility.yul\":1121:1153   */\n      slt\n        /* \"#utility.yul\":1118:1237   */\n      iszero\n      tag_94\n      jumpi\n        /* \"#utility.yul\":1156:1235   */\n      tag_95\n      tag_45\n      jump\t// in\n    tag_95:\n        /* \"#utility.yul\":1118:1237   */\n    tag_94:\n        /* \"#utility.yul\":1276:1277   */\n      0x00\n        /* \"#utility.yul\":1301:1354   */\n      tag_96\n        /* \"#utility.yul\":1346:1353   */\n      dup5\n        /* \"#utility.yul\":1337:1343   */\n      dup3\n        /* \"#utility.yul\":1326:1335   */\n      dup6\n        /* \"#utility.yul\":1322:1344   */\n      add\n        /* \"#utility.yul\":1301:1354   */\n      tag_48\n      jump\t// in\n    tag_96:\n        /* \"#utility.yul\":1291:1354   */\n      swap2\n      pop\n        /* \"#utility.yul\":1247:1364   */\n      pop\n        /* \"#utility.yul\":1042:1371   */\n      swap3\n      swap2\n      pop\n      pop\n      jump\t// out\n        /* \"#utility.yul\":1377:1494   */\n    tag_49:\n        /* \"#utility.yul\":1486:1487   */\n      0x00\n        /* \"#utility.yul\":1483:1484   */\n      dup1\n        /* \"#utility.yul\":1476:1488   */\n      revert\n        /* \"#utility.yul\":1500:1617   */\n    tag_50:\n        /* \"#utility.yul\":1609:1610   */\n      0x00\n        /* \"#utility.yul\":1606:1607   */\n      dup1\n        /* \"#utility.yul\":1599:1611   */\n      revert\n        /* \"#utility.yul\":1623:1725   */\n    tag_51:\n        /* \"#utility.yul\":1664:1670   */\n      0x00\n        /* \"#utility.yul\":1715:1717   */\n      0x1f\n        /* \"#utility.yul\":1711:1718   */\n      not\n        /* \"#utility.yul\":1706:1708   */\n      0x1f\n        /* \"#utility.yul\":1699:1704   */\n      dup4\n        /* \"#utility.yul\":1695:1709   */\n      add\n        /* \"#utility.yul\":1691:1719   */\n      and\n        /* \"#utility.yul\":1681:1719   */\n      swap1\n      pop\n        /* \"#utility.yul\":1623:1725   */\n      swap2\n      swap1\n      pop\n      jump\t// out\n        /* \"#utility.yul\":1731:1911   */\n    tag_52:\n        /* \"#utility.yul\":1779:1856   */\n      0x4e487b7100000000000000000000000000000000000000000000000000000000\n        /* \"#utility.yul\":1776:1777   */\n      0x00\n        /* \"#utility.yul\":1769:1857   */\n      mstore\n        /* \"#utility.yul\":1876:1880   */\n      0x41\n        /* \"#utility.yul\":1873:1874   */\n      0x04\n        /* \"#utility.yul\":1866:1881   */\n      mstore\n        /* \"#utility.yul\":1900:1904   */\n      0x24\n        /* \"#utility.yul\":1897:1898   */\n      0x00\n        /* \"#utility.yul\":1890:1905   */\n      revert\n        /* \"#utility.yul\":1917:2198   */\n    tag_53:\n        /* \"#utility.yul\":2000:2027   */\n      tag_102\n        /* \"#utility.yul\":2022:2026   */\n      dup3\n        /* \"#utility.yul\":2000:2027   */\n      tag_51\n      jump\t// in\n    tag_102:\n        /* \"#utility.yul\":1992:1998   */\n      dup2\n        /* \"#utility.yul\":1988:2028   */\n      add\n        /* \"#utility.yul\":2130:2136   */\n      dup2\n        /* \"#utility.yul\":2118:2128   */\n      dup2\n        /* \"#utility.yul\":2115:2137   */\n      lt\n        /* \"#utility.yul\":2094:2112   */\n      0xffffffffffffffff\n        /* \"#utility.yul\":2082:2092   */\n      dup3\n        /* \"#utility.yul\":2079:2113   */\n      gt\n        /* \"#utility.yul\":2076:2138   */\n      or\n        /* \"#utility.yul\":2073:2161   */\n      iszero\n      tag_103\n      jumpi\n        /* \"#utility.yul\":2141:2159   */\n      tag_104\n      tag_52\n      jump\t// in\n    tag_104:\n        /* \"#utility.yul\":2073:2161   */\n    tag_103:\n        /* \"#utility.yul\":2181:2191   */\n      dup1\n        /* \"#utility.yul\":2177:2179   */\n      0x40\n        /* \"#utility.yul\":2170:2192   */\n      mstore\n        /* \"#utility.yul\":1960:2198   */\n      pop\n        /* \"#utility.yul\":1917:2198   */\n      pop\n      pop\n      jump\t// out\n        /* \"#utility.yul\":2204:2333   */\n    tag_54:\n        /* \"#utility.yul\":2238:2244   */\n      0x00\n        /* \"#utility.yul\":2265:2285   */\n      tag_106\n      tag_44\n      jump\t// in\n    tag_106:\n        /* \"#utility.yul\":2255:2285   */\n      swap1\n      pop\n        /* \"#utility.yul\":2294:2327   */\n      tag_107\n        /* \"#utility.yul\":2322:2326   */\n      dup3\n        /* \"#utility.yul\":2314:2320   */\n      dup3\n        /* \"#utility.yul\":2294:2327   */\n      tag_53\n      jump\t// in\n    tag_107:\n        /* \"#utility.yul\":2204:2333   */\n      swap2\n      swap1\n      pop\n      jump\t// out\n        /* \"#utility.yul\":2339:2647   */\n    tag_55:\n        /* \"#utility.yul\":2401:2405   */\n      0x00\n        /* \"#utility.yul\":2491:2509   */\n      0xffffffffffffffff\n        /* \"#utility.yul\":2483:2489   */\n      dup3\n        /* \"#utility.yul\":2480:2510   */\n      gt\n        /* \"#utility.yul\":2477:2533   */\n      iszero\n      tag_109\n      jumpi\n        /* \"#utility.yul\":2513:2531   */\n      tag_110\n      tag_52\n      jump\t// in\n    tag_110:\n        /* \"#utility.yul\":2477:2533   */\n    tag_109:\n        /* \"#utility.yul\":2551:2580   */\n      tag_111\n        /* \"#utility.yul\":2573:2579   */\n      dup3\n        /* \"#utility.yul\":2551:2580   */\n      tag_51\n      jump\t// in\n    tag_111:\n        /* \"#utility.yul\":2543:2580   */\n      swap1\n      pop\n        /* \"#utility.yul\":2635:2639   */\n      0x20\n        /* \"#utility.yul\":2629:2633   */\n      dup2\n        /* \"#utility.yul\":2625:2640   */\n      add\n        /* \"#utility.yul\":2617:2640   */\n      swap1\n      pop\n        /* \"#utility.yul\":2339:2647   */\n      swap2\n      swap1\n      pop\n      jump\t// out\n        /* \"#utility.yul\":2653:2801   */\n    tag_56:\n        /* \"#utility.yul\":2751:2757   */\n      dup3\n        /* \"#utility.yul\":2746:2749   */\n      dup2\n        /* \"#utility.yul\":2741:2744   */\n      dup4\n        /* \"#utility.yul\":2728:2758   */\n      calldatacopy\n        /* \"#utility.yul\":2792:2793   */\n      0x00\n        /* \"#utility.yul\":2783:2789   */\n      dup4\n        /* \"#utility.yul\":2778:2781   */\n      dup4\n        /* \"#utility.yul\":2774:2790   */\n      add\n        /* \"#utility.yul\":2767:2794   */\n      mstore\n        /* \"#utility.yul\":2653:2801   */\n      pop\n      pop\n      pop\n      jump\t// out\n        /* \"#utility.yul\":2807:3232   */\n    tag_57:\n        /* \"#utility.yul\":2885:2890   */\n      0x00\n        /* \"#utility.yul\":2910:2976   */\n      tag_114\n        /* \"#utility.yul\":2926:2975   */\n      tag_115\n        /* \"#utility.yul\":2968:2974   */\n      dup5\n        /* \"#utility.yul\":2926:2975   */\n      tag_55\n      jump\t// in\n    tag_115:\n        /* \"#utility.yul\":2910:2976   */\n      tag_54\n      jump\t// in\n    tag_114:\n        /* \"#utility.yul\":2901:2976   */\n      swap1\n      pop\n        /* \"#utility.yul\":2999:3005   */\n      dup3\n        /* \"#utility.yul\":2992:2997   */\n      dup2\n        /* \"#utility.yul\":2985:3006   */\n      mstore\n        /* \"#utility.yul\":3037:3041   */\n      0x20\n        /* \"#utility.yul\":3030:3035   */\n      dup2\n        /* \"#utility.yul\":3026:3042   */\n      add\n        /* \"#utility.yul\":3075:3078   */\n      dup5\n        /* \"#utility.yul\":3066:3072   */\n      dup5\n        /* \"#utility.yul\":3061:3064   */\n      dup5\n        /* \"#utility.yul\":3057:3073   */\n      add\n        /* \"#utility.yul\":3054:3079   */\n      gt\n        /* \"#utility.yul\":3051:3163   */\n      iszero\n      tag_116\n      jumpi\n        /* \"#utility.yul\":3082:3161   */\n      tag_117\n      tag_50\n      jump\t// in\n    tag_117:\n        /* \"#utility.yul\":3051:3163   */\n    tag_116:\n        /* \"#utility.yul\":3172:3226   */\n      tag_118\n        /* \"#utility.yul\":3219:3225   */\n      dup5\n        /* \"#utility.yul\":3214:3217   */\n      dup3\n        /* \"#utility.yul\":3209:3212   */\n      dup6\n        /* \"#utility.yul\":3172:3226   */\n      tag_56\n      jump\t// in\n    tag_118:\n        /* \"#utility.yul\":2891:3232   */\n      pop\n        /* \"#utility.yul\":2807:3232   */\n      swap4\n      swap3\n      pop\n      pop\n      pop\n      jump\t// out\n        /* \"#utility.yul\":3252:3592   */\n    tag_58:\n        /* \"#utility.yul\":3308:3313   */\n      0x00\n        /* \"#utility.yul\":3357:3360   */\n      dup3\n        /* \"#utility.yul\":3350:3354   */\n      0x1f\n        /* \"#utility.yul\":3342:3348   */\n      dup4\n        /* \"#utility.yul\":3338:3355   */\n      add\n        /* \"#utility.yul\":3334:3361   */\n      slt\n        /* \"#utility.yul\":3324:3446   */\n      tag_120\n      jumpi\n        /* \"#utility.yul\":3365:3444   */\n      tag_121\n      tag_49\n      jump\t// in\n    tag_121:\n        /* \"#utility.yul\":3324:3446   */\n    tag_120:\n        /* \"#utility.yul\":3482:3488   */\n      dup2\n        /* \"#utility.yul\":3469:3489   */\n      calldataload\n        /* \"#utility.yul\":3507:3586   */\n      tag_122\n        /* \"#utility.yul\":3582:3585   */\n      dup5\n        /* \"#utility.yul\":3574:3580   */\n      dup3\n        /* \"#utility.yul\":3567:3571   */\n      0x20\n        /* \"#utility.yul\":3559:3565   */\n      dup7\n        /* \"#utility.yul\":3555:3572   */\n      add\n        /* \"#utility.yul\":3507:3586   */\n      tag_57\n      jump\t// in\n    tag_122:\n        /* \"#utility.yul\":3498:3586   */\n      swap2\n      pop\n        /* \"#utility.yul\":3314:3592   */\n      pop\n        /* \"#utility.yul\":3252:3592   */\n      swap3\n      swap2\n      pop\n      pop\n      jump\t// out\n        /* \"#utility.yul\":3598:4252   */\n    tag_21:\n        /* \"#utility.yul\":3676:3682   */\n      0x00\n        /* \"#utility.yul\":3684:3690   */\n      dup1\n        /* \"#utility.yul\":3733:3735   */\n      0x40\n        /* \"#utility.yul\":3721:3730   */\n      dup4\n        /* \"#utility.yul\":3712:3719   */\n      dup6\n        /* \"#utility.yul\":3708:3731   */\n      sub\n        /* \"#utility.yul\":3704:3736   */\n      slt\n        /* \"#utility.yul\":3701:3820   */\n      iszero\n      tag_124\n      jumpi\n        /* \"#utility.yul\":3739:3818   */\n      tag_125\n      tag_45\n      jump\t// in\n    tag_125:\n        /* \"#utility.yul\":3701:3820   */\n    tag_124:\n        /* \"#utility.yul\":3887:3888   */\n      0x00\n        /* \"#utility.yul\":3876:3885   */\n      dup4\n        /* \"#utility.yul\":3872:3889   */\n      add\n        /* \"#utility.yul\":3859:3890   */\n      calldataload\n        /* \"#utility.yul\":3917:3935   */\n      0xffffffffffffffff\n        /* \"#utility.yul\":3909:3915   */\n      dup2\n        /* \"#utility.yul\":3906:3936   */\n      gt\n        /* \"#utility.yul\":3903:4020   */\n      iszero\n      tag_126\n      jumpi\n        /* \"#utility.yul\":3939:4018   */\n      tag_127\n      tag_46\n      jump\t// in\n    tag_127:\n        /* \"#utility.yul\":3903:4020   */\n    tag_126:\n        /* \"#utility.yul\":4044:4107   */\n      tag_128\n        /* \"#utility.yul\":4099:4106   */\n      dup6\n        /* \"#utility.yul\":4090:4096   */\n      dup3\n        /* \"#utility.yul\":4079:4088   */\n      dup7\n        /* \"#utility.yul\":4075:4097   */\n      add\n        /* \"#utility.yul\":4044:4107   */\n      tag_58\n      jump\t// in\n    tag_128:\n        /* \"#utility.yul\":4034:4107   */\n      swap3\n      pop\n        /* \"#utility.yul\":3830:4117   */\n      pop\n        /* \"#utility.yul\":4156:4158   */\n      0x20\n        /* \"#utility.yul\":4182:4235   */\n      tag_129\n        /* \"#utility.yul\":4227:4234   */\n      dup6\n        /* \"#utility.yul\":4218:4224   */\n      dup3\n        /* \"#utility.yul\":4207:4216   */\n      dup7\n        /* \"#utility.yul\":4203:4225   */\n      add\n        /* \"#utility.yul\":4182:4235   */\n      tag_48\n      jump\t// in\n    tag_129:\n        /* \"#utility.yul\":4172:4235   */\n      swap2\n      pop\n        /* \"#utility.yul\":4127:4245   */\n      pop\n        /* \"#utility.yul\":3598:4252   */\n      swap3\n      pop\n      swap3\n      swap1\n      pop\n      jump\t// out\n        /* \"#utility.yul\":4258:4357   */\n    tag_59:\n        /* \"#utility.yul\":4310:4316   */\n      0x00\n        /* \"#utility.yul\":4344:4349   */\n      dup2\n        /* \"#utility.yul\":4338:4350   */\n      mload\n        /* \"#utility.yul\":4328:4350   */\n      swap1\n      pop\n        /* \"#utility.yul\":4258:4357   */\n      swap2\n      swap1\n      pop\n      jump\t// out\n        /* \"#utility.yul\":4363:4532   */\n    tag_60:\n        /* \"#utility.yul\":4447:4458   */\n      0x00\n        /* \"#utility.yul\":4481:4487   */\n      dup3\n        /* \"#utility.yul\":4476:4479   */\n      dup3\n        /* \"#utility.yul\":4469:4488   */\n      mstore\n        /* \"#utility.yul\":4521:4525   */\n      0x20\n        /* \"#utility.yul\":4516:4519   */\n      dup3\n        /* \"#utility.yul\":4512:4526   */\n      add\n        /* \"#utility.yul\":4497:4526   */\n      swap1\n      pop\n        /* \"#utility.yul\":4363:4532   */\n      swap3\n      swap2\n      pop\n      pop\n      jump\t// out\n        /* \"#utility.yul\":4538:4677   */\n    tag_61:\n        /* \"#utility.yul\":4627:4633   */\n      dup3\n        /* \"#utility.yul\":4622:4625   */\n      dup2\n        /* \"#utility.yul\":4617:4620   */\n      dup4\n        /* \"#utility.yul\":4611:4634   */\n      mcopy\n        /* \"#utility.yul\":4668:4669   */\n      0x00\n        /* \"#utility.yul\":4659:4665   */\n      dup4\n        /* \"#utility.yul\":4654:4657   */\n      dup4\n        /* \"#utility.yul\":4650:4666   */\n      add\n        /* \"#utility.yul\":4643:4670   */\n      mstore\n        /* \"#utility.yul\":4538:4677   */\n      pop\n      pop\n      pop\n      jump\t// out\n        /* \"#utility.yul\":4683:5060   */\n    tag_62:\n        /* \"#utility.yul\":4771:4774   */\n      0x00\n        /* \"#utility.yul\":4799:4838   */\n      tag_134\n        /* \"#utility.yul\":4832:4837   */\n      dup3\n        /* \"#utility.yul\":4799:4838   */\n      tag_59\n      jump\t// in\n    tag_134:\n        /* \"#utility.yul\":4854:4925   */\n      tag_135\n        /* \"#utility.yul\":4918:4924   */\n      dup2\n        /* \"#utility.yul\":4913:4916   */\n      dup6\n        /* \"#utility.yul\":4854:4925   */\n      tag_60\n      jump\t// in\n    tag_135:\n        /* \"#utility.yul\":4847:4925   */\n      swap4\n      pop\n        /* \"#utility.yul\":4934:4999   */\n      tag_136\n        /* \"#utility.yul\":4992:4998   */\n      dup2\n        /* \"#utility.yul\":4987:4990   */\n      dup6\n        /* \"#utility.yul\":4980:4984   */\n      0x20\n        /* \"#utility.yul\":4973:4978   */\n      dup7\n        /* \"#utility.yul\":4969:4985   */\n      add\n        /* \"#utility.yul\":4934:4999   */\n      tag_61\n      jump\t// in\n    tag_136:\n        /* \"#utility.yul\":5024:5053   */\n      tag_137\n        /* \"#utility.yul\":5046:5052   */\n      dup2\n        /* \"#utility.yul\":5024:5053   */\n      tag_51\n      jump\t// in\n    tag_137:\n        /* \"#utility.yul\":5019:5022   */\n      dup5\n        /* \"#utility.yul\":5015:5054   */\n      add\n        /* \"#utility.yul\":5008:5054   */\n      swap2\n      pop\n        /* \"#utility.yul\":4775:5060   */\n      pop\n        /* \"#utility.yul\":4683:5060   */\n      swap3\n      swap2\n      pop\n      pop\n      jump\t// out\n        /* \"#utility.yul\":5066:5489   */\n    tag_27:\n        /* \"#utility.yul\":5207:5211   */\n      0x00\n        /* \"#utility.yul\":5245:5247   */\n      0x40\n        /* \"#utility.yul\":5234:5243   */\n      dup3\n        /* \"#utility.yul\":5230:5248   */\n      add\n        /* \"#utility.yul\":5222:5248   */\n      swap1\n      pop\n        /* \"#utility.yul\":5258:5329   */\n      tag_139\n        /* \"#utility.yul\":5326:5327   */\n      0x00\n        /* \"#utility.yul\":5315:5324   */\n      dup4\n        /* \"#utility.yul\":5311:5328   */\n      add\n        /* \"#utility.yul\":5302:5308   */\n      dup6\n        /* \"#utility.yul\":5258:5329   */\n      tag_43\n      jump\t// in\n    tag_139:\n        /* \"#utility.yul\":5376:5385   */\n      dup2\n        /* \"#utility.yul\":5370:5374   */\n      dup2\n        /* \"#utility.yul\":5366:5386   */\n      sub\n        /* \"#utility.yul\":5361:5363   */\n      0x20\n        /* \"#utility.yul\":5350:5359   */\n      dup4\n        /* \"#utility.yul\":5346:5364   */\n      add\n        /* \"#utility.yul\":5339:5387   */\n      mstore\n        /* \"#utility.yul\":5404:5482   */\n      tag_140\n        /* \"#utility.yul\":5477:5481   */\n      dup2\n        /* \"#utility.yul\":5468:5474   */\n      dup5\n        /* \"#utility.yul\":5404:5482   */\n      tag_62\n      jump\t// in\n    tag_140:\n        /* \"#utility.yul\":5396:5482   */\n      swap1\n      pop\n        /* \"#utility.yul\":5066:5489   */\n      swap4\n      swap3\n      pop\n      pop\n      pop\n      jump\t// out\n        /* \"#utility.yul\":5495:5675   */\n    tag_63:\n        /* \"#utility.yul\":5543:5620   */\n      0x4e487b7100000000000000000000000000000000000000000000000000000000\n        /* \"#utility.yul\":5540:5541   */\n      0x00\n        /* \"#utility.yul\":5533:5621   */\n      mstore\n        /* \"#utility.yul\":5640:5644   */\n      0x22\n        /* \"#utility.yul\":5637:5638   */\n      0x04\n        /* \"#utility.yul\":5630:5645   */\n      mstore\n        /* \"#utility.yul\":5664:5668   */\n      0x24\n        /* \"#utility.yul\":5661:5662   */\n      0x00\n        /* \"#utility.yul\":5654:5669   */\n      revert\n        /* \"#utility.yul\":5681:6001   */\n    tag_37:\n        /* \"#utility.yul\":5725:5731   */\n      0x00\n        /* \"#utility.yul\":5762:5763   */\n      0x02\n        /* \"#utility.yul\":5756:5760   */\n      dup3\n        /* \"#utility.yul\":5752:5764   */\n      div\n        /* \"#utility.yul\":5742:5764   */\n      swap1\n      pop\n        /* \"#utility.yul\":5809:5810   */\n      0x01\n        /* \"#utility.yul\":5803:5807   */\n      dup3\n        /* \"#utility.yul\":5799:5811   */\n      and\n        /* \"#utility.yul\":5830:5848   */\n      dup1\n        /* \"#utility.yul\":5820:5901   */\n      tag_143\n      jumpi\n        /* \"#utility.yul\":5886:5890   */\n      0x7f\n        /* \"#utility.yul\":5878:5884   */\n      dup3\n        /* \"#utility.yul\":5874:5891   */\n      and\n        /* \"#utility.yul\":5864:5891   */\n      swap2\n      pop\n        /* \"#utility.yul\":5820:5901   */\n    tag_143:\n        /* \"#utility.yul\":5948:5950   */\n      0x20\n        /* \"#utility.yul\":5940:5946   */\n      dup3\n        /* \"#utility.yul\":5937:5951   */\n      lt\n        /* \"#utility.yul\":5917:5935   */\n      dup2\n        /* \"#utility.yul\":5914:5952   */\n      sub\n        /* \"#utility.yul\":5911:5995   */\n      tag_144\n      jumpi\n        /* \"#utility.yul\":5967:5985   */\n      tag_145\n      tag_63\n      jump\t// in\n    tag_145:\n        /* \"#utility.yul\":5911:5995   */\n    tag_144:\n        /* \"#utility.yul\":5732:6001   */\n      pop\n        /* \"#utility.yul\":5681:6001   */\n      swap2\n      swap1\n      pop\n      jump\t// out\n        /* \"#utility.yul\":6007:6148   */\n    tag_64:\n        /* \"#utility.yul\":6056:6060   */\n      0x00\n        /* \"#utility.yul\":6079:6082   */\n      dup2\n        /* \"#utility.yul\":6071:6082   */\n      swap1\n      pop\n        /* \"#utility.yul\":6102:6105   */\n      dup2\n        /* \"#utility.yul\":6099:6100   */\n      0x00\n        /* \"#utility.yul\":6092:6106   */\n      mstore\n        /* \"#utility.yul\":6136:6140   */\n      0x20\n        /* \"#utility.yul\":6133:6134   */\n      0x00\n        /* \"#utility.yul\":6123:6141   */\n      keccak256\n        /* \"#utility.yul\":6115:6141   */\n      swap1\n      pop\n        /* \"#utility.yul\":6007:6148   */\n      swap2\n      swap1\n      pop\n      jump\t// out\n        /* \"#utility.yul\":6154:6247   */\n    tag_65:\n        /* \"#utility.yul\":6191:6197   */\n      0x00\n        /* \"#utility.yul\":6238:6240   */\n      0x20\n        /* \"#utility.yul\":6233:6235   */\n      0x1f\n        /* \"#utility.yul\":6226:6231   */\n      dup4\n        /* \"#utility.yul\":6222:6236   */\n      add\n        /* \"#utility.yul\":6218:6241   */\n      div\n        /* \"#utility.yul\":6208:6241   */\n      swap1\n      pop\n        /* \"#utility.yul\":6154:6247   */\n      swap2\n      swap1\n      pop\n      jump\t// out\n        /* \"#utility.yul\":6253:6360   */\n    tag_66:\n        /* \"#utility.yul\":6297:6305   */\n      0x00\n        /* \"#utility.yul\":6347:6352   */\n      dup3\n        /* \"#utility.yul\":6341:6345   */\n      dup3\n        /* \"#utility.yul\":6337:6353   */\n      shl\n        /* \"#utility.yul\":6316:6353   */\n      swap1\n      pop\n        /* \"#utility.yul\":6253:6360   */\n      swap3\n      swap2\n      pop\n      pop\n      jump\t// out\n        /* \"#utility.yul\":6366:6759   */\n    tag_67:\n        /* \"#utility.yul\":6435:6441   */\n      0x00\n        /* \"#utility.yul\":6485:6486   */\n      0x08\n        /* \"#utility.yul\":6473:6483   */\n      dup4\n        /* \"#utility.yul\":6469:6487   */\n      mul\n        /* \"#utility.yul\":6508:6605   */\n      tag_150\n        /* \"#utility.yul\":6538:6604   */\n      0xffffffffffffffffffffffffffffffffffffffffffffffffffffffffffffffff\n        /* \"#utility.yul\":6527:6536   */\n      dup3\n        /* \"#utility.yul\":6508:6605   */\n      tag_66\n      jump\t// in\n    tag_150:\n        /* \"#utility.yul\":6626:6665   */\n      tag_151\n        /* \"#utility.yul\":6656:6664   */\n      dup7\n        /* \"#utility.yul\":6645:6654   */\n      dup4\n        /* \"#utility.yul\":6626:6665   */\n      tag_66\n      jump\t// in\n    tag_151:\n        /* \"#utility.yul\":6614:6665   */\n      swap6\n      pop\n        /* \"#utility.yul\":6698:6702   */\n      dup1\n        /* \"#utility.yul\":6694:6703   */\n      not\n        /* \"#utility.yul\":6687:6692   */\n      dup5\n        /* \"#utility.yul\":6683:6704   */\n      and\n        /* \"#utility.yul\":6674:6704   */\n      swap4\n      pop\n        /* \"#utility.yul\":6747:6751   */\n      dup1\n        /* \"#utility.yul\":6737:6745   */\n      dup7\n        /* \"#utility.yul\":6733:6752   */\n      and\n        /* \"#utility.yul\":6726:6731   */\n      dup5\n        /* \"#utility.yul\":6723:6753   */\n      or\n        /* \"#utility.yul\":6713:6753   */\n      swap3\n      pop\n        /* \"#utility.yul\":6442:6759   */\n      pop\n      pop\n        /* \"#utility.yul\":6366:6759   */\n      swap4\n      swap3\n      pop\n      pop\n      pop\n      jump\t// out\n        /* \"#utility.yul\":6765:6825   */\n    tag_68:\n        /* \"#utility.yul\":6793:6796   */\n      0x00\n        /* \"#utility.yul\":6814:6819   */\n      dup2\n        /* \"#utility.yul\":6807:6819   */\n      swap1\n      pop\n        /* \"#utility.yul\":6765:6825   */\n      swap2\n      swap1\n      pop\n      jump\t// out\n        /* \"#utility.yul\":6831:6973   */\n    tag_69:\n        /* \"#utility.yul\":6881:6890   */\n      0x00\n        /* \"#utility.yul\":6914:6967   */\n      tag_154\n        /* \"#utility.yul\":6932:6966   */\n      tag_155\n        /* \"#utility.yul\":6941:6965   */\n      tag_156\n        /* \"#utility.yul\":6959:6964   */\n      dup5\n        /* \"#utility.yul\":6941:6965   */\n      tag_42\n      jump\t// in\n    tag_156:\n        /* \"#utility.yul\":6932:6966   */\n      tag_68\n      jump\t// in\n    tag_155:\n        /* \"#utility.yul\":6914:6967   */\n      tag_42\n      jump\t// in\n    tag_154:\n        /* \"#utility.yul\":6901:6967   */\n      swap1\n      pop\n        /* \"#utility.yul\":6831:6973   */\n      swap2\n      swap1\n      pop\n      jump\t// out\n        /* \"#utility.yul\":6979:7054   */\n    tag_70:\n        /* \"#utility.yul\":7022:7025   */\n      0x00\n        /* \"#utility.yul\":7043:7048   */\n      dup2\n        /* \"#utility.yul\":7036:7048   */\n      swap1\n      pop\n        /* \"#utility.yul\":6979:7054   */\n      swap2\n      swap1\n      pop\n      jump\t// out\n        /* \"#utility.yul\":7060:7329   */\n    tag_71:\n        /* \"#utility.yul\":7170:7209   */\n      tag_159\n        /* \"#utility.yul\":7201:7208   */\n      dup4\n        /* \"#utility.yul\":7170:7209   */\n      tag_69\n      jump\t// in\n    tag_159:\n        /* \"#utility.yul\":7231:7322   */\n      tag_160\n        /* \"#utility.yul\":7280:7321   */\n      tag_161\n        /* \"#utility.yul\":7304:7320   */\n      dup3\n        /* \"#utility.yul\":7280:7321   */\n      tag_70\n      jump\t// in\n    tag_161:\n        /* \"#utility.yul\":7272:7278   */\n      dup5\n        /* \"#utility.yul\":7265:7269   */\n      dup5\n        /* \"#utility.yul\":7259:7270   */\n      sload\n        /* \"#utility.yul\":7231:7322   */\n      tag_67\n      jump\t// in\n    tag_160:\n        /* \"#utility.yul\":7225:7229   */\n      dup3\n        /* \"#utility.yul\":7218:7323   */\n      sstore\n        /* \"#utility.yul\":7136:7329   */\n      pop\n        /* \"#utility.yul\":7060:7329   */\n      pop\n      pop\n      pop\n      jump\t// out\n        /* \"#utility.yul\":7335:7408   */\n    tag_72:\n        /* \"#utility.yul\":7380:7383   */\n      0x00\n        /* \"#utility.yul\":7335:7408   */\n      swap1\n      jump\t// out\n        /* \"#utility.yul\":7414:7603   */\n    tag_73:\n        /* \"#utility.yul\":7491:7523   */\n      tag_164\n      tag_72\n      jump\t// in\n    tag_164:\n        /* \"#utility.yul\":7532:7597   */\n      tag_165\n        /* \"#utility.yul\":7590:7596   */\n      dup2\n        /* \"#utility.yul\":7582:7588   */\n      dup5\n        /* \"#utility.yul\":7576:7580   */\n      dup5\n        /* \"#utility.yul\":7532:7597   */\n      tag_71\n      jump\t// in\n    tag_165:\n        /* \"#utility.yul\":7467:7603   */\n      pop\n        /* \"#utility.yul\":7414:7603   */\n      pop\n      pop\n      jump\t// out\n        /* \"#utility.yul\":7609:7795   */\n    tag_74:\n        /* \"#utility.yul\":7669:7789   */\n    tag_167:\n        /* \"#utility.yul\":7686:7689   */\n      dup2\n        /* \"#utility.yul\":7679:7684   */\n      dup2\n        /* \"#utility.yul\":7676:7690   */\n      lt\n        /* \"#utility.yul\":7669:7789   */\n      iszero\n      tag_169\n      jumpi\n        /* \"#utility.yul\":7740:7779   */\n      tag_170\n        /* \"#utility.yul\":7777:7778   */\n      0x00\n        /* \"#utility.yul\":7770:7775   */\n      dup3\n        /* \"#utility.yul\":7740:7779   */\n      tag_73\n      jump\t// in\n    tag_170:\n        /* \"#utility.yul\":7713:7714   */\n      0x01\n        /* \"#utility.yul\":7706:7711   */\n      dup2\n        /* \"#utility.yul\":7702:7715   */\n      add\n        /* \"#utility.yul\":7693:7715   */\n      swap1\n      pop\n        /* \"#utility.yul\":7669:7789   */\n      jump(tag_167)\n    tag_169:\n        /* \"#utility.yul\":7609:7795   */\n      pop\n      pop\n      jump\t// out\n        /* \"#utility.yul\":7801:8344   */\n    tag_75:\n        /* \"#utility.yul\":7902:7904   */\n      0x1f\n        /* \"#utility.yul\":7897:7900   */\n      dup3\n        /* \"#utility.yul\":7894:7905   */\n      gt\n        /* \"#utility.yul\":7891:8337   */\n      iszero\n      tag_172\n      jumpi\n        /* \"#utility.yul\":7936:7974   */\n      tag_173\n        /* \"#utility.yul\":7968:7973   */\n      dup2\n        /* \"#utility.yul\":7936:7974   */\n      tag_64\n      jump\t// in\n    tag_173:\n        /* \"#utility.yul\":8020:8049   */\n      tag_174\n        /* \"#utility.yul\":8038:8048   */\n      dup5\n        /* \"#utility.yul\":8020:8049   */\n      tag_65\n      jump\t// in\n    tag_174:\n        /* \"#utility.yul\":8010:8018   */\n      dup2\n        /* \"#utility.yul\":8006:8050   */\n      add\n        /* \"#utility.yul\":8203:8205   */\n      0x20\n        /* \"#utility.yul\":8191:8201   */\n      dup6\n        /* \"#utility.yul\":8188:8206   */\n      lt\n        /* \"#utility.yul\":8185:8234   */\n      iszero\n      tag_175\n      jumpi\n        /* \"#utility.yul\":8224:8232   */\n      dup2\n        /* \"#utility.yul\":8209:8232   */\n      swap1\n      pop\n        /* \"#utility.yul\":8185:8234   */\n    tag_175:\n        /* \"#utility.yul\":8247:8327   */\n      tag_176\n        /* \"#utility.yul\":8303:8325   */\n      tag_177\n        /* \"#utility.yul\":8321:8324   */\n      dup6\n        /* \"#utility.yul\":8303:8325   */\n      tag_65\n      jump\t// in\n    tag_177:\n        /* \"#utility.yul\":8293:8301   */\n      dup4\n        /* \"#utility.yul\":8289:8326   */\n      add\n        /* \"#utility.yul\":8276:8287   */\n      dup3\n        /* \"#utility.yul\":8247:8327   */\n      tag_74\n      jump\t// in\n    tag_176:\n        /* \"#utility.yul\":7906:8337   */\n      pop\n      pop\n        /* \"#utility.yul\":7891:8337   */\n    tag_172:\n        /* \"#utility.yul\":7801:8344   */\n      pop\n      pop\n      pop\n      jump\t// out\n        /* \"#utility.yul\":8350:8467   */\n    tag_76:\n        /* \"#utility.yul\":8404:8412   */\n      0x00\n        /* \"#utility.yul\":8454:8459   */\n      dup3\n        /* \"#utility.yul\":8448:8452   */\n      dup3\n        /* \"#utility.yul\":8444:8460   */\n      shr\n        /* \"#utility.yul\":8423:8460   */\n      swap1\n      pop\n        /* \"#utility.yul\":8350:8467   */\n      swap3\n      swap2\n      pop\n      pop\n      jump\t// out\n        /* \"#utility.yul\":8473:8642   */\n    tag_77:\n        /* \"#utility.yul\":8517:8523   */\n      0x00\n        /* \"#utility.yul\":8550:8601   */\n      tag_180\n        /* \"#utility.yul\":8598:8599   */\n      0x00\n        /* \"#utility.yul\":8594:8600   */\n      not\n        /* \"#utility.yul\":8586:8591   */\n      dup5\n        /* \"#utility.yul\":8583:8584   */\n      0x08\n        /* \"#utility.yul\":8579:8592   */\n      mul\n        /* \"#utility.yul\":8550:8601   */\n      tag_76\n      jump\t// in\n    tag_180:\n        /* \"#utility.yul\":8546:8602   */\n      not\n        /* \"#utility.yul\":8631:8635   */\n      dup1\n        /* \"#utility.yul\":8625:8629   */\n      dup4\n        /* \"#utility.yul\":8621:8636   */\n      and\n        /* \"#utility.yul\":8611:8636   */\n      swap2\n      pop\n        /* \"#utility.yul\":8524:8642   */\n      pop\n        /* \"#utility.yul\":8473:8642   */\n      swap3\n      swap2\n      pop\n      pop\n      jump\t// out\n        /* \"#utility.yul\":8647:8942   */\n    tag_78:\n        /* \"#utility.yul\":8723:8727   */\n      0x00\n        /* \"#utility.yul\":8869:8898   */\n      tag_182\n        /* \"#utility.yul\":8894:8897   */\n      dup4\n        /* \"#utility.yul\":8888:8892   */\n      dup4\n        /* \"#utility.yul\":8869:8898   */\n      tag_77\n      jump\t// in\n    tag_182:\n        /* \"#utility.yul\":8861:8898   */\n      swap2\n      pop\n        /* \"#utility.yul\":8931:8934   */\n      dup3\n        /* \"#utility.yul\":8928:8929   */\n      0x02\n        /* \"#utility.yul\":8924:8935   */\n      mul\n        /* \"#utility.yul\":8918:8922   */\n      dup3\n        /* \"#utility.yul\":8915:8936   */\n      or\n        /* \"#utility.yul\":8907:8936   */\n      swap1\n      pop\n        /* \"#utility.yul\":8647:8942   */\n      swap3\n      swap2\n      pop\n      pop\n      jump\t// out\n        /* \"#utility.yul\":8947:10342   */\n    tag_33:\n        /* \"#utility.yul\":9064:9101   */\n      tag_184\n        /* \"#utility.yul\":9097:9100   */\n      dup3\n        /* \"#utility.yul\":9064:9101   */\n      tag_59\n      jump\t// in\n    tag_184:\n        /* \"#utility.yul\":9166:9184   */\n      0xffffffffffffffff\n        /* \"#utility.yul\":9158:9164   */\n      dup2\n        /* \"#utility.yul\":9155:9185   */\n      gt\n        /* \"#utility.yul\":9152:9208   */\n      iszero\n      tag_185\n      jumpi\n        /* \"#utility.yul\":9188:9206   */\n      tag_186\n      tag_52\n      jump\t// in\n    tag_186:\n        /* \"#utility.yul\":9152:9208   */\n    tag_185:\n        /* \"#utility.yul\":9232:9270   */\n      tag_187\n        /* \"#utility.yul\":9264:9268   */\n      dup3\n        /* \"#utility.yul\":9258:9269   */\n      sload\n        /* \"#utility.yul\":9232:9270   */\n      tag_37\n      jump\t// in\n    tag_187:\n        /* \"#utility.yul\":9317:9384   */\n      tag_188\n        /* \"#utility.yul\":9377:9383   */\n      dup3\n        /* \"#utility.yul\":9369:9375   */\n      dup3\n        /* \"#utility.yul\":9363:9367   */\n      dup6\n        /* \"#utility.yul\":9317:9384   */\n      tag_75\n      jump\t// in\n    tag_188:\n        /* \"#utility.yul\":9411:9412   */\n      0x00\n        /* \"#utility.yul\":9435:9439   */\n      0x20\n        /* \"#utility.yul\":9422:9439   */\n      swap1\n      pop\n        /* \"#utility.yul\":9467:9469   */\n      0x1f\n        /* \"#utility.yul\":9459:9465   */\n      dup4\n        /* \"#utility.yul\":9456:9470   */\n      gt\n        /* \"#utility.yul\":9484:9485   */\n      0x01\n        /* \"#utility.yul\":9479:10097   */\n      dup2\n      eq\n      tag_190\n      jumpi\n        /* \"#utility.yul\":10141:10142   */\n      0x00\n        /* \"#utility.yul\":10158:10164   */\n      dup5\n        /* \"#utility.yul\":10155:10232   */\n      iszero\n      tag_191\n      jumpi\n        /* \"#utility.yul\":10207:10216   */\n      dup3\n        /* \"#utility.yul\":10202:10205   */\n      dup8\n        /* \"#utility.yul\":10198:10217   */\n      add\n        /* \"#utility.yul\":10192:10218   */\n      mload\n        /* \"#utility.yul\":10183:10218   */\n      swap1\n      pop\n        /* \"#utility.yul\":10155:10232   */\n    tag_191:\n        /* \"#utility.yul\":10258:10325   */\n      tag_192\n        /* \"#utility.yul\":10318:10324   */\n      dup6\n        /* \"#utility.yul\":10311:10316   */\n      dup3\n        /* \"#utility.yul\":10258:10325   */\n      tag_78\n      jump\t// in\n    tag_192:\n        /* \"#utility.yul\":10252:10256   */\n      dup7\n        /* \"#utility.yul\":10245:10326   */\n      sstore\n        /* \"#utility.yul\":10114:10336   */\n      pop\n        /* \"#utility.yul\":9449:10336   */\n      jump(tag_189)\n        /* \"#utility.yul\":9479:10097   */\n    tag_190:\n        /* \"#utility.yul\":9531:9535   */\n      0x1f\n        /* \"#utility.yul\":9527:9536   */\n      not\n        /* \"#utility.yul\":9519:9525   */\n      dup5\n        /* \"#utility.yul\":9515:9537   */\n      and\n        /* \"#utility.yul\":9565:9602   */\n      tag_193\n        /* \"#utility.yul\":9597:9601   */\n      dup7\n        /* \"#utility.yul\":9565:9602   */\n      tag_64\n      jump\t// in\n    tag_193:\n        /* \"#utility.yul\":9624:9625   */\n      0x00\n        /* \"#utility.yul\":9638:9846   */\n    tag_194:\n        /* \"#utility.yul\":9652:9659   */\n      dup3\n        /* \"#utility.yul\":9649:9650   */\n      dup2\n        /* \"#utility.yul\":9646:9660   */\n      lt\n        /* \"#utility.yul\":9638:9846   */\n      iszero\n      tag_196\n      jumpi\n        /* \"#utility.yul\":9731:9740   */\n      dup5\n        /* \"#utility.yul\":9726:9729   */\n      dup10\n        /* \"#utility.yul\":9722:9741   */\n      add\n        /* \"#utility.yul\":9716:9742   */\n      mload\n        /* \"#utility.yul\":9708:9714   */\n      dup3\n        /* \"#utility.yul\":9701:9743   */\n      sstore\n        /* \"#utility.yul\":9782:9783   */\n      0x01\n        /* \"#utility.yul\":9774:9780   */\n      dup3\n        /* \"#utility.yul\":9770:9784   */\n      add\n        /* \"#utility.yul\":9760:9784   */\n      swap2\n      pop\n        /* \"#utility.yul\":9829:9831   */\n      0x20\n        /* \"#utility.yul\":9818:9827   */\n      dup6\n        /* \"#utility.yul\":9814:9832   */\n      add\n        /* \"#utility.yul\":9801:9832   */\n      swap5\n      pop\n        /* \"#utility.yul\":9675:9679   */\n      0x20\n        /* \"#utility.yul\":9672:9673   */\n      dup2\n        /* \"#utility.yul\":9668:9680   */\n      add\n        /* \"#utility.yul\":9663:9680   */\n      swap1\n      pop\n        /* \"#utility.yul\":9638:9846   */\n      jump(tag_194)\n    tag_196:\n        /* \"#utility.yul\":9874:9880   */\n      dup7\n        /* \"#utility.yul\":9865:9872   */\n      dup4\n        /* \"#utility.yul\":9862:9881   */\n      lt\n        /* \"#utility.yul\":9859:10038   */\n      iszero\n      tag_197\n      jumpi\n        /* \"#utility.yul\":9932:9941   */\n      dup5\n        /* \"#utility.yul\":9927:9930   */\n      dup10\n        /* \"#utility.yul\":9923:9942   */\n      add\n        /* \"#utility.yul\":9917:9943   */\n      mload\n        /* \"#utility.yul\":9975:10023   */\n      tag_198\n        /* \"#utility.yul\":10017:10021   */\n      0x1f\n        /* \"#utility.yul\":10009:10015   */\n      dup10\n        /* \"#utility.yul\":10005:10022   */\n      and\n        /* \"#utility.yul\":9994:10003   */\n      dup3\n        /* \"#utility.yul\":9975:10023   */\n      tag_77\n      jump\t// in\n    tag_198:\n        /* \"#utility.yul\":9967:9973   */\n      dup4\n        /* \"#utility.yul\":9960:10024   */\n      sstore\n        /* \"#utility.yul\":9882:10038   */\n      pop\n        /* \"#utility.yul\":9859:10038   */\n    tag_197:\n        /* \"#utility.yul\":10084:10085   */\n      0x01\n        /* \"#utility.yul\":10080:10081   */\n      0x02\n        /* \"#utility.yul\":10072:10078   */\n      dup9\n        /* \"#utility.yul\":10068:10082   */\n      mul\n        /* \"#utility.yul\":10064:10086   */\n      add\n        /* \"#utility.yul\":10058:10062   */\n      dup9\n        /* \"#utility.yul\":10051:10087   */\n      sstore\n        /* \"#utility.yul\":9486:10097   */\n      pop\n      pop\n      pop\n        /* \"#utility.yul\":9449:10336   */\n    tag_189:\n      pop\n        /* \"#utility.yul\":9039:10342   */\n      pop\n      pop\n      pop\n        /* \"#utility.yul\":8947:10342   */\n      pop\n      pop\n      jump\t// out\n\n    auxdata: 0xa2646970667358221220f6097c808f59c2772859e205ffb40d2303c7048f32328bbc15522ae386818fca64736f6c634300081a0033\n}\n",
				"bytecode": {
					"linkReferences": {},
					"object": "6080604052348015600e575f80fd5b506107e48061001c5f395ff3fe608060405234801561000f575f80fd5b5060043610610055575f3560e01c80632e64cec114610059578063471f7cdf146100775780636057361d146100955780636f760f41146100b15780639e7a13ad146100cd575b5f80fd5b6100616100fe565b60405161006e9190610242565b60405180910390f35b61007f610106565b60405161008c9190610242565b60405180910390f35b6100af60048036038101906100aa9190610296565b61010b565b005b6100cb60048036038101906100c691906103fd565b610114565b005b6100e760048036038101906100e29190610296565b610175565b6040516100f59291906104b7565b60405180910390f35b5f8054905090565b5f5481565b805f8190555050565b6001604051806040016040528083815260200184815250908060018154018082558091505060019003905f5260205f2090600202015f909190919091505f820151815f0155602082015181600101908161016e91906106df565b5050505050565b60018181548110610184575f80fd5b905f5260205f2090600202015f91509050805f0154908060010180546101a990610512565b80601f01602080910402602001604051908101604052809291908181526020018280546101d590610512565b80156102205780601f106101f757610100808354040283529160200191610220565b820191905f5260205f20905b81548152906001019060200180831161020357829003601f168201915b5050505050905082565b5f819050919050565b61023c8161022a565b82525050565b5f6020820190506102555f830184610233565b92915050565b5f604051905090565b5f80fd5b5f80fd5b6102758161022a565b811461027f575f80fd5b50565b5f813590506102908161026c565b92915050565b5f602082840312156102ab576102aa610264565b5b5f6102b884828501610282565b91505092915050565b5f80fd5b5f80fd5b5f601f19601f8301169050919050565b7f4e487b71000000000000000000000000000000000000000000000000000000005f52604160045260245ffd5b61030f826102c9565b810181811067ffffffffffffffff8211171561032e5761032d6102d9565b5b80604052505050565b5f61034061025b565b905061034c8282610306565b919050565b5f67ffffffffffffffff82111561036b5761036a6102d9565b5b610374826102c9565b9050602081019050919050565b828183375f83830152505050565b5f6103a161039c84610351565b610337565b9050828152602081018484840111156103bd576103bc6102c5565b5b6103c8848285610381565b509392505050565b5f82601f8301126103e4576103e36102c1565b5b81356103f484826020860161038f565b91505092915050565b5f806040838503121561041357610412610264565b5b5f83013567ffffffffffffffff8111156104305761042f610268565b5b61043c858286016103d0565b925050602061044d85828601610282565b9150509250929050565b5f81519050919050565b5f82825260208201905092915050565b8281835e5f83830152505050565b5f61048982610457565b6104938185610461565b93506104a3818560208601610471565b6104ac816102c9565b840191505092915050565b5f6040820190506104ca5f830185610233565b81810360208301526104dc818461047f565b90509392505050565b7f4e487b71000000000000000000000000000000000000000000000000000000005f52602260045260245ffd5b5f600282049050600182168061052957607f821691505b60208210810361053c5761053b6104e5565b5b50919050565b5f819050815f5260205f209050919050565b5f6020601f8301049050919050565b5f82821b905092915050565b5f6008830261059e7fffffffffffffffffffffffffffffffffffffffffffffffffffffffffffffffff82610563565b6105a88683610563565b95508019841693508086168417925050509392505050565b5f819050919050565b5f6105e36105de6105d98461022a565b6105c0565b61022a565b9050919050565b5f819050919050565b6105fc836105c9565b610610610608826105ea565b84845461056f565b825550505050565b5f90565b610624610618565b61062f8184846105f3565b505050565b5b81811015610652576106475f8261061c565b600181019050610635565b5050565b601f8211156106975761066881610542565b61067184610554565b81016020851015610680578190505b61069461068c85610554565b830182610634565b50505b505050565b5f82821c905092915050565b5f6106b75f198460080261069c565b1980831691505092915050565b5f6106cf83836106a8565b9150826002028217905092915050565b6106e882610457565b67ffffffffffffffff811115610701576107006102d9565b5b61070b8254610512565b610716828285610656565b5f60209050601f831160018114610747575f8415610735578287015190505b61073f85826106c4565b8655506107a6565b601f19841661075586610542565b5f5b8281101561077c57848901518255600182019150602085019450602081019050610757565b868310156107995784890151610795601f8916826106a8565b8355505b6001600288020188555050505b50505050505056fea2646970667358221220f6097c808f59c2772859e205ffb40d2303c7048f32328bbc15522ae386818fca64736f6c634300081a0033",
					"opcodes": "PUSH1 0x80 PUSH1 0x40 MSTORE CALLVALUE DUP1 ISZERO PUSH1 0xE JUMPI PUSH0 DUP1 REVERT JUMPDEST POP PUSH2 0x7E4 DUP1 PUSH2 0x1C PUSH0 CODECOPY PUSH0 RETURN INVALID PUSH1 0x80 PUSH1 0x40 MSTORE CALLVALUE DUP1 ISZERO PUSH2 0xF JUMPI PUSH0 DUP1 REVERT JUMPDEST POP PUSH1 0x4 CALLDATASIZE LT PUSH2 0x55 JUMPI PUSH0 CALLDATALOAD PUSH1 0xE0 SHR DUP1 PUSH4 0x2E64CEC1 EQ PUSH2 0x59 JUMPI DUP1 PUSH4 0x471F7CDF EQ PUSH2 0x77 JUMPI DUP1 PUSH4 0x6057361D EQ PUSH2 0x95 JUMPI DUP1 PUSH4 0x6F760F41 EQ PUSH2 0xB1 JUMPI DUP1 PUSH4 0x9E7A13AD EQ PUSH2 0xCD JUMPI JUMPDEST PUSH0 DUP1 REVERT JUMPDEST PUSH2 0x61 PUSH2 0xFE JUMP JUMPDEST PUSH1 0x40 MLOAD PUSH2 0x6E SWAP2 SWAP1 PUSH2 0x242 JUMP JUMPDEST PUSH1 0x40 MLOAD DUP1 SWAP2 SUB SWAP1 RETURN JUMPDEST PUSH2 0x7F PUSH2 0x106 JUMP JUMPDEST PUSH1 0x40 MLOAD PUSH2 0x8C SWAP2 SWAP1 PUSH2 0x242 JUMP JUMPDEST PUSH1 0x40 MLOAD DUP1 SWAP2 SUB SWAP1 RETURN JUMPDEST PUSH2 0xAF PUSH1 0x4 DUP1 CALLDATASIZE SUB DUP2 ADD SWAP1 PUSH2 0xAA SWAP2 SWAP1 PUSH2 0x296 JUMP JUMPDEST PUSH2 0x10B JUMP JUMPDEST STOP JUMPDEST PUSH2 0xCB PUSH1 0x4 DUP1 CALLDATASIZE SUB DUP2 ADD SWAP1 PUSH2 0xC6 SWAP2 SWAP1 PUSH2 0x3FD JUMP JUMPDEST PUSH2 0x114 JUMP JUMPDEST STOP JUMPDEST PUSH2 0xE7 PUSH1 0x4 DUP1 CALLDATASIZE SUB DUP2 ADD SWAP1 PUSH2 0xE2 SWAP2 SWAP1 PUSH2 0x296 JUMP JUMPDEST PUSH2 0x175 JUMP JUMPDEST PUSH1 0x40 MLOAD PUSH2 0xF5 SWAP3 SWAP2 SWAP1 PUSH2 0x4B7 JUMP JUMPDEST PUSH1 0x40 MLOAD DUP1 SWAP2 SUB SWAP1 RETURN JUMPDEST PUSH0 DUP1 SLOAD SWAP1 POP SWAP1 JUMP JUMPDEST PUSH0 SLOAD DUP2 JUMP JUMPDEST DUP1 PUSH0 DUP2 SWAP1 SSTORE POP POP JUMP JUMPDEST PUSH1 0x1 PUSH1 0x40 MLOAD DUP1 PUSH1 0x40 ADD PUSH1 0x40 MSTORE DUP1 DUP4 DUP2 MSTORE PUSH1 0x20 ADD DUP5 DUP2 MSTORE POP SWAP1 DUP1 PUSH1 0x1 DUP2 SLOAD ADD DUP1 DUP3 SSTORE DUP1 SWAP2 POP POP PUSH1 0x1 SWAP1 SUB SWAP1 PUSH0 MSTORE PUSH1 0x20 PUSH0 KECCAK256 SWAP1 PUSH1 0x2 MUL ADD PUSH0 SWAP1 SWAP2 SWAP1 SWAP2 SWAP1 SWAP2 POP PUSH0 DUP3 ADD MLOAD DUP2 PUSH0 ADD SSTORE PUSH1 0x20 DUP3 ADD MLOAD DUP2 PUSH1 0x1 ADD SWAP1 DUP2 PUSH2 0x16E SWAP2 SWAP1 PUSH2 0x6DF JUMP JUMPDEST POP POP POP POP POP JUMP JUMPDEST PUSH1 0x1 DUP2 DUP2 SLOAD DUP2 LT PUSH2 0x184 JUMPI PUSH0 DUP1 REVERT JUMPDEST SWAP1 PUSH0 MSTORE PUSH1 0x20 PUSH0 KECCAK256 SWAP1 PUSH1 0x2 MUL ADD PUSH0 SWAP2 POP SWAP1 POP DUP1 PUSH0 ADD SLOAD SWAP1 DUP1 PUSH1 0x1 ADD DUP1 SLOAD PUSH2 0x1A9 SWAP1 PUSH2 0x512 JUMP JUMPDEST DUP1 PUSH1 0x1F ADD PUSH1 0x20 DUP1 SWAP2 DIV MUL PUSH1 0x20 ADD PUSH1 0x40 MLOAD SWAP1 DUP2 ADD PUSH1 0x40 MSTORE DUP1 SWAP3 SWAP2 SWAP1 DUP2 DUP2 MSTORE PUSH1 0x20 ADD DUP3 DUP1 SLOAD PUSH2 0x1D5 SWAP1 PUSH2 0x512 JUMP JUMPDEST DUP1 ISZERO PUSH2 0x220 JUMPI DUP1 PUSH1 0x1F LT PUSH2 0x1F7 JUMPI PUSH2 0x100 DUP1 DUP4 SLOAD DIV MUL DUP4 MSTORE SWAP2 PUSH1 0x20 ADD SWAP2 PUSH2 0x220 JUMP JUMPDEST DUP3 ADD SWAP2 SWAP1 PUSH0 MSTORE PUSH1 0x20 PUSH0 KECCAK256 SWAP1 JUMPDEST DUP2 SLOAD DUP2 MSTORE SWAP1 PUSH1 0x1 ADD SWAP1 PUSH1 0x20 ADD DUP1 DUP4 GT PUSH2 0x203 JUMPI DUP3 SWAP1 SUB PUSH1 0x1F AND DUP3 ADD SWAP2 JUMPDEST POP POP POP POP POP SWAP1 POP DUP3 JUMP JUMPDEST PUSH0 DUP2 SWAP1 POP SWAP2 SWAP1 POP JUMP JUMPDEST PUSH2 0x23C DUP2 PUSH2 0x22A JUMP JUMPDEST DUP3 MSTORE POP POP JUMP JUMPDEST PUSH0 PUSH1 0x20 DUP3 ADD SWAP1 POP PUSH2 0x255 PUSH0 DUP4 ADD DUP5 PUSH2 0x233 JUMP JUMPDEST SWAP3 SWAP2 POP POP JUMP JUMPDEST PUSH0 PUSH1 0x40 MLOAD SWAP1 POP SWAP1 JUMP JUMPDEST PUSH0 DUP1 REVERT JUMPDEST PUSH0 DUP1 REVERT JUMPDEST PUSH2 0x275 DUP2 PUSH2 0x22A JUMP JUMPDEST DUP2 EQ PUSH2 0x27F JUMPI PUSH0 DUP1 REVERT JUMPDEST POP JUMP JUMPDEST PUSH0 DUP2 CALLDATALOAD SWAP1 POP PUSH2 0x290 DUP2 PUSH2 0x26C JUMP JUMPDEST SWAP3 SWAP2 POP POP JUMP JUMPDEST PUSH0 PUSH1 0x20 DUP3 DUP5 SUB SLT ISZERO PUSH2 0x2AB JUMPI PUSH2 0x2AA PUSH2 0x264 JUMP JUMPDEST JUMPDEST PUSH0 PUSH2 0x2B8 DUP5 DUP3 DUP6 ADD PUSH2 0x282 JUMP JUMPDEST SWAP2 POP POP SWAP3 SWAP2 POP POP JUMP JUMPDEST PUSH0 DUP1 REVERT JUMPDEST PUSH0 DUP1 REVERT JUMPDEST PUSH0 PUSH1 0x1F NOT PUSH1 0x1F DUP4 ADD AND SWAP1 POP SWAP2 SWAP1 POP JUMP JUMPDEST PUSH32 0x4E487B7100000000000000000000000000000000000000000000000000000000 PUSH0 MSTORE PUSH1 0x41 PUSH1 0x4 MSTORE PUSH1 0x24 PUSH0 REVERT JUMPDEST PUSH2 0x30F DUP3 PUSH2 0x2C9 JUMP JUMPDEST DUP2 ADD DUP2 DUP2 LT PUSH8 0xFFFFFFFFFFFFFFFF DUP3 GT OR ISZERO PUSH2 0x32E JUMPI PUSH2 0x32D PUSH2 0x2D9 JUMP JUMPDEST JUMPDEST DUP1 PUSH1 0x40 MSTORE POP POP POP JUMP JUMPDEST PUSH0 PUSH2 0x340 PUSH2 0x25B JUMP JUMPDEST SWAP1 POP PUSH2 0x34C DUP3 DUP3 PUSH2 0x306 JUMP JUMPDEST SWAP2 SWAP1 POP JUMP JUMPDEST PUSH0 PUSH8 0xFFFFFFFFFFFFFFFF DUP3 GT ISZERO PUSH2 0x36B JUMPI PUSH2 0x36A PUSH2 0x2D9 JUMP JUMPDEST JUMPDEST PUSH2 0x374 DUP3 PUSH2 0x2C9 JUMP JUMPDEST SWAP1 POP PUSH1 0x20 DUP2 ADD SWAP1 POP SWAP2 SWAP1 POP JUMP JUMPDEST DUP3 DUP2 DUP4 CALLDATACOPY PUSH0 DUP4 DUP4 ADD MSTORE POP POP POP JUMP JUMPDEST PUSH0 PUSH2 0x3A1 PUSH2 0x39C DUP5 PUSH2 0x351 JUMP JUMPDEST PUSH2 0x337 JUMP JUMPDEST SWAP1 POP DUP3 DUP2 MSTORE PUSH1 0x20 DUP2 ADD DUP5 DUP5 DUP5 ADD GT ISZERO PUSH2 0x3BD JUMPI PUSH2 0x3BC PUSH2 0x2C5 JUMP JUMPDEST JUMPDEST PUSH2 0x3C8 DUP5 DUP3 DUP6 PUSH2 0x381 JUMP JUMPDEST POP SWAP4 SWAP3 POP POP POP JUMP JUMPDEST PUSH0 DUP3 PUSH1 0x1F DUP4 ADD SLT PUSH2 0x3E4 JUMPI PUSH2 0x3E3 PUSH2 0x2C1 JUMP JUMPDEST JUMPDEST DUP2 CALLDATALOAD PUSH2 0x3F4 DUP5 DUP3 PUSH1 0x20 DUP7 ADD PUSH2 0x38F JUMP JUMPDEST SWAP2 POP POP SWAP3 SWAP2 POP POP JUMP JUMPDEST PUSH0 DUP1 PUSH1 0x40 DUP4 DUP6 SUB SLT ISZERO PUSH2 0x413 JUMPI PUSH2 0x412 PUSH2 0x264 JUMP JUMPDEST JUMPDEST PUSH0 DUP4 ADD CALLDATALOAD PUSH8 0xFFFFFFFFFFFFFFFF DUP2 GT ISZERO PUSH2 0x430 JUMPI PUSH2 0x42F PUSH2 0x268 JUMP JUMPDEST JUMPDEST PUSH2 0x43C DUP6 DUP3 DUP7 ADD PUSH2 0x3D0 JUMP JUMPDEST SWAP3 POP POP PUSH1 0x20 PUSH2 0x44D DUP6 DUP3 DUP7 ADD PUSH2 0x282 JUMP JUMPDEST SWAP2 POP POP SWAP3 POP SWAP3 SWAP1 POP JUMP JUMPDEST PUSH0 DUP2 MLOAD SWAP1 POP SWAP2 SWAP1 POP JUMP JUMPDEST PUSH0 DUP3 DUP3 MSTORE PUSH1 0x20 DUP3 ADD SWAP1 POP SWAP3 SWAP2 POP POP JUMP JUMPDEST DUP3 DUP2 DUP4 MCOPY PUSH0 DUP4 DUP4 ADD MSTORE POP POP POP JUMP JUMPDEST PUSH0 PUSH2 0x489 DUP3 PUSH2 0x457 JUMP JUMPDEST PUSH2 0x493 DUP2 DUP6 PUSH2 0x461 JUMP JUMPDEST SWAP4 POP PUSH2 0x4A3 DUP2 DUP6 PUSH1 0x20 DUP7 ADD PUSH2 0x471 JUMP JUMPDEST PUSH2 0x4AC DUP2 PUSH2 0x2C9 JUMP JUMPDEST DUP5 ADD SWAP2 POP POP SWAP3 SWAP2 POP POP JUMP JUMPDEST PUSH0 PUSH1 0x40 DUP3 ADD SWAP1 POP PUSH2 0x4CA PUSH0 DUP4 ADD DUP6 PUSH2 0x233 JUMP JUMPDEST DUP2 DUP2 SUB PUSH1 0x20 DUP4 ADD MSTORE PUSH2 0x4DC DUP2 DUP5 PUSH2 0x47F JUMP JUMPDEST SWAP1 POP SWAP4 SWAP3 POP POP POP JUMP JUMPDEST PUSH32 0x4E487B7100000000000000000000000000000000000000000000000000000000 PUSH0 MSTORE PUSH1 0x22 PUSH1 0x4 MSTORE PUSH1 0x24 PUSH0 REVERT JUMPDEST PUSH0 PUSH1 0x2 DUP3 DIV SWAP1 POP PUSH1 0x1 DUP3 AND DUP1 PUSH2 0x529 JUMPI PUSH1 0x7F DUP3 AND SWAP2 POP JUMPDEST PUSH1 0x20 DUP3 LT DUP2 SUB PUSH2 0x53C JUMPI PUSH2 0x53B PUSH2 0x4E5 JUMP JUMPDEST JUMPDEST POP SWAP2 SWAP1 POP JUMP JUMPDEST PUSH0 DUP2 SWAP1 POP DUP2 PUSH0 MSTORE PUSH1 0x20 PUSH0 KECCAK256 SWAP1 POP SWAP2 SWAP1 POP JUMP JUMPDEST PUSH0 PUSH1 0x20 PUSH1 0x1F DUP4 ADD DIV SWAP1 POP SWAP2 SWAP1 POP JUMP JUMPDEST PUSH0 DUP3 DUP3 SHL SWAP1 POP SWAP3 SWAP2 POP POP JUMP JUMPDEST PUSH0 PUSH1 0x8 DUP4 MUL PUSH2 0x59E PUSH32 0xFFFFFFFFFFFFFFFFFFFFFFFFFFFFFFFFFFFFFFFFFFFFFFFFFFFFFFFFFFFFFFFF DUP3 PUSH2 0x563 JUMP JUMPDEST PUSH2 0x5A8 DUP7 DUP4 PUSH2 0x563 JUMP JUMPDEST SWAP6 POP DUP1 NOT DUP5 AND SWAP4 POP DUP1 DUP7 AND DUP5 OR SWAP3 POP POP POP SWAP4 SWAP3 POP POP POP JUMP JUMPDEST PUSH0 DUP2 SWAP1 POP SWAP2 SWAP1 POP JUMP JUMPDEST PUSH0 PUSH2 0x5E3 PUSH2 0x5DE PUSH2 0x5D9 DUP5 PUSH2 0x22A JUMP JUMPDEST PUSH2 0x5C0 JUMP JUMPDEST PUSH2 0x22A JUMP JUMPDEST SWAP1 POP SWAP2 SWAP1 POP JUMP JUMPDEST PUSH0 DUP2 SWAP1 POP SWAP2 SWAP1 POP JUMP JUMPDEST PUSH2 0x5FC DUP4 PUSH2 0x5C9 JUMP JUMPDEST PUSH2 0x610 PUSH2 0x608 DUP3 PUSH2 0x5EA JUMP JUMPDEST DUP5 DUP5 SLOAD PUSH2 0x56F JUMP JUMPDEST DUP3 SSTORE POP POP POP POP JUMP JUMPDEST PUSH0 SWAP1 JUMP JUMPDEST PUSH2 0x624 PUSH2 0x618 JUMP JUMPDEST PUSH2 0x62F DUP2 DUP5 DUP5 PUSH2 0x5F3 JUMP JUMPDEST POP POP POP JUMP JUMPDEST JUMPDEST DUP2 DUP2 LT ISZERO PUSH2 0x652 JUMPI PUSH2 0x647 PUSH0 DUP3 PUSH2 0x61C JUMP JUMPDEST PUSH1 0x1 DUP2 ADD SWAP1 POP PUSH2 0x635 JUMP JUMPDEST POP POP JUMP JUMPDEST PUSH1 0x1F DUP3 GT ISZERO PUSH2 0x697 JUMPI PUSH2 0x668 DUP2 PUSH2 0x542 JUMP JUMPDEST PUSH2 0x671 DUP5 PUSH2 0x554 JUMP JUMPDEST DUP2 ADD PUSH1 0x20 DUP6 LT ISZERO PUSH2 0x680 JUMPI DUP2 SWAP1 POP JUMPDEST PUSH2 0x694 PUSH2 0x68C DUP6 PUSH2 0x554 JUMP JUMPDEST DUP4 ADD DUP3 PUSH2 0x634 JUMP JUMPDEST POP POP JUMPDEST POP POP POP JUMP JUMPDEST PUSH0 DUP3 DUP3 SHR SWAP1 POP SWAP3 SWAP2 POP POP JUMP JUMPDEST PUSH0 PUSH2 0x6B7 PUSH0 NOT DUP5 PUSH1 0x8 MUL PUSH2 0x69C JUMP JUMPDEST NOT DUP1 DUP4 AND SWAP2 POP POP SWAP3 SWAP2 POP POP JUMP JUMPDEST PUSH0 PUSH2 0x6CF DUP4 DUP4 PUSH2 0x6A8 JUMP JUMPDEST SWAP2 POP DUP3 PUSH1 0x2 MUL DUP3 OR SWAP1 POP SWAP3 SWAP2 POP POP JUMP JUMPDEST PUSH2 0x6E8 DUP3 PUSH2 0x457 JUMP JUMPDEST PUSH8 0xFFFFFFFFFFFFFFFF DUP2 GT ISZERO PUSH2 0x701 JUMPI PUSH2 0x700 PUSH2 0x2D9 JUMP JUMPDEST JUMPDEST PUSH2 0x70B DUP3 SLOAD PUSH2 0x512 JUMP JUMPDEST PUSH2 0x716 DUP3 DUP3 DUP6 PUSH2 0x656 JUMP JUMPDEST PUSH0 PUSH1 0x20 SWAP1 POP PUSH1 0x1F DUP4 GT PUSH1 0x1 DUP2 EQ PUSH2 0x747 JUMPI PUSH0 DUP5 ISZERO PUSH2 0x735 JUMPI DUP3 DUP8 ADD MLOAD SWAP1 POP JUMPDEST PUSH2 0x73F DUP6 DUP3 PUSH2 0x6C4 JUMP JUMPDEST DUP7 SSTORE POP PUSH2 0x7A6 JUMP JUMPDEST PUSH1 0x1F NOT DUP5 AND PUSH2 0x755 DUP7 PUSH2 0x542 JUMP JUMPDEST PUSH0 JUMPDEST DUP3 DUP2 LT ISZERO PUSH2 0x77C JUMPI DUP5 DUP10 ADD MLOAD DUP3 SSTORE PUSH1 0x1 DUP3 ADD SWAP2 POP PUSH1 0x20 DUP6 ADD SWAP5 POP PUSH1 0x20 DUP2 ADD SWAP1 POP PUSH2 0x757 JUMP JUMPDEST DUP7 DUP4 LT ISZERO PUSH2 0x799 JUMPI DUP5 DUP10 ADD MLOAD PUSH2 0x795 PUSH1 0x1F DUP10 AND DUP3 PUSH2 0x6A8 JUMP JUMPDEST DUP4 SSTORE POP JUMPDEST PUSH1 0x1 PUSH1 0x2 DUP9 MUL ADD DUP9 SSTORE POP POP POP JUMPDEST POP POP POP POP POP POP JUMP INVALID LOG2 PUSH5 0x6970667358 0x22 SLT KECCAK256 0xF6 MULMOD PUSH29 0x808F59C2772859E205FFB40D2303C7048F32328BBC15522AE386818FCA PUSH5 0x736F6C6343 STOP ADDMOD BYTE STOP CALLER "
				},
				"gasEstimates": {
					"creation": {
						"codeDepositCost": "404000",
						"executionCost": "441",
						"totalCost": "404441"
					},
					"external": {
						"addPerson(string,uint256)": "infinite",
						"favoriteNumber()": "2424",
						"people(uint256)": "infinite",
						"retrieve()": "2410",
						"store(uint256)": "22536"
					}
				},
				"methodIdentifiers": {
					"addPerson(string,uint256)": "6f760f41",
					"favoriteNumber()": "471f7cdf",
					"people(uint256)": "9e7a13ad",
					"retrieve()": "2e64cec1",
					"store(uint256)": "6057361d"
				}
			},
			"storageLayout": {
				"storage": [
					{
						"astId": 3,
						"contract": "contracts/SimpleStorage.sol:SimpleStorage",
						"label": "favoriteNumber",
						"offset": 0,
						"slot": "0",
						"type": "t_uint256"
					},
					{
						"astId": 7,
						"contract": "contracts/SimpleStorage.sol:SimpleStorage",
						"label": "people",
						"offset": 0,
						"slot": "1",
						"type": "t_array(t_struct(People)12_storage)dyn_storage"
					}
				],
				"types": {
					"t_array(t_struct(People)12_storage)dyn_storage": {
						"base": "t_struct(People)12_storage",
						"encoding": "dynamic_array",
						"label": "struct SimpleStorage.People[]",
						"numberOfBytes": "32"
					},
					"t_string_storage": {
						"encoding": "bytes",
						"label": "string",
						"numberOfBytes": "32"
					},
					"t_struct(People)12_storage": {
						"encoding": "inplace",
						"label": "struct SimpleStorage.People",
						"members": [
							{
								"astId": 9,
								"contract": "contracts/SimpleStorage.sol:SimpleStorage",
								"label": "favoriteNumber",
								"offset": 0,
								"slot": "0",
								"type": "t_uint256"
							},
							{
								"astId": 11,
								"contract": "contracts/SimpleStorage.sol:SimpleStorage",
								"label": "name",
								"offset": 0,
								"slot": "1",
								"type": "t_string_storage"
							}
						],
						"numberOfBytes": "64"
					},
					"t_uint256": {
						"encoding": "inplace",
						"label": "uint256",
						"numberOfBytes": "32"
					}
				}
			},
			"userdoc": {
				"kind": "user",
				"methods": {},
				"version": 1
			}
		}
	}
}